:020000040800F2
:10000000000002203D4B0008554A0008574A0008EE
:100010006D4A0008834A0008994A00080000000061
:10002000000000000000000000000000AF4A0008CF
:10003000B14A000800000000B34A0008B54A0008B1
:10004000914B0008914B0008914B0008914B000820
:10005000914B0008914B0008914B0008914B000810
:10006000914B0008914B0008914B0008914B000800
:10007000914B0008914B0008914B0008914B0008F0
:10008000914B0008914B0008914B0008B94A0008B9
:10009000C54A0008914B0008914B0008914B00089D
:1000A000914B0008914B0008914B0008914B0008C0
:1000B000914B0008914B0008914B0008914B0008B0
:1000C000914B0008914B0008914B0008914B0008A0
:1000D000914B0008D14A0008914B0008914B000851
:1000E000914B0008914B000800000000914B000864
:1000F000914B0008914B0008914B0008914B000870
:10010000914B0008914B0008914B0008914B00085F
:10011000914B0008914B0008914B0008914B00084F
:10012000914B0008914B0008914B0008914B00083F
:10013000914B0008914B0008914B0008914B00082F
:1001400000000000000000000000000000000000AF
:10015000914B0008914B0008914B0008914B00080F
:10016000914B0008914B0008914B0008914B0008FF
:10017000914B0008914B0008914B000800000000D3
:10018000914B0008914B0008914B0008914B0008DF
:10019000914B0008914B0008914B0008914B0008CF
:1001A000914B0008914B0008914B0008914B0008BF
:1001B000914B0008914B0008914B0008914B0008AF
:1001C000914B0008914B0008914B0008914B00089F
:1001D000914B0008914B0008914B0008914B00088F
:1001E000914B0008914B0008914B0008914B00087F
:1001F000914B0008914B0008914B0008914B00086F
:10020000914B0008914B0008914B0008914B00085E
:10021000914B0008914B0008914B0008914B00084E
:10022000914B0008914B0008914B00080000000022
:10023000914B0008914B000800000000914B000812
:10024000914B0008914B0008914B0008914B00081E
:10025000914B0008914B0008914B0008914B00080E
:10026000914B0008914B0008914B0008914B0008FE
:10027000914B0008914B0008914B000800000000D2
:10028000914B0008914B0008914B000800000000C2
:0802900000000000914B000882
:1002A00010B5054C237833B9044B13B10448AFF3B0
:1002B00000800123237010BD6800002000000000B2
:1002C000E49C000808B5034B1BB103490348AFF396
:1002D000008008BD000000006C000020E49C0008C5
:1002E00053B94AB9002908BF00281CBF4FF0FF319D
:1002F0004FF0FF3000F088B9ADF1080C6DE904CE85
:1003000000F006F8DDF804E0DDE9022304B07047F0
:100310002DE9F047089D0F4604468C46002B48D136
:100320008A42164661D9B2FA82F34BB1C3F1200278
:1003300001FA03FC20FA02F29E4042EA0C0C9C40B7
:100340004FEA164EB7B2BCFBFEF1220C0EFB11CCED
:1003500042EA0C4201FB07F0904209D9B21801F1C0
:10036000FF3C80F0EE80904240F2EB800239324454
:10037000121AA4B2B2FBFEF00EFB102244EA0244B1
:1003800000FB07F7A74209D9341900F1FF3280F0CA
:10039000DA80A74240F2D7803444023840EA014074
:1003A000E41B00211DB1DC400023C5E90043BDE88A
:1003B000F0878B4206D90DB1C5E90001002108463E
:1003C000BDE8F087B3FA83F1002948D1BB4202D3DC
:1003D000824200F20781841A67EB030201209446EF
:1003E000002DE4D0C5E9004CE1E7002A00F092803E
:1003F000B2FA82F3002B40F0A8808A1A4FEA164E18
:100400001FFA86FC0121200CB2FBFEF70EFB17221F
:1004100040EA02420CFB07F0904207D9B21807F1FC
:10042000FF3802D2904200F2E2804746121AA4B28C
:10043000B2FBFEF00EFB102244EA02440CFB00FC6F
:10044000A44507D9341900F1FF3202D2A44500F2C5
:10045000CB801046A4EB0C0440EA0740A2E7C1F1B0
:1004600020068B4022FA06FC4CEA030C07FA01F442
:1004700020FA06F3F7404FEA1C49234300FA01F83B
:100480001FFA8CFEB7FBF9F01C0C09FB107744EA4D
:10049000074400FB0EF7A74202FA01F20AD91CEB4F
:1004A000040400F1FF3A80F09B80A74240F298805C
:1004B00002386444E41B9FB2B4FBF9F309FB134414
:1004C00047EA044403FB0EFEA64509D91CEB0404CD
:1004D00003F1FF3780F08280A6457FD9023B644458
:1004E00043EA0040A4EB0E04A0FB02E7BC427346C3
:1004F000B94663D360D05DB1B8EB030264EB090485
:1005000004FA06F622FA01F31E43CC40C5E9006462
:1005100000214CE76208480842EAC1710B0C43EA2B
:1005200000438AB242EA0342B3FBF6F1E407B44661
:100530003746B6461F23B0FBF6F0D21B41EA004116
:1005400061E7614614E7104628E7C3F1200120FA6D
:1005500001F29E4027FA01F19F403A434FEA164EBE
:100560001FFA86FCB1FBFEF70EFB1710110C41EAD7
:10057000004107FB0CF8884504FA03F43AD97118D6
:1005800007F1FF3001D288451FD8A1EB0801B1FB6C
:10059000FEF808FB0CF70EFB181192B242EA01427A
:1005A000BA422FD2B21808F1FF31C6D2BA42C4D231
:1005B000A8F102013244C0E7F0459CD2BEEB020331
:1005C00067EB0C070138B94695E7A6EB08084144EC
:1005D000B81EB1FBFEF808FB0CF7DCE73B467FE7F3
:1005E000504667E70846FBE63444023832E7023FEC
:1005F00032441BE7A1EB08013846B1FBFEF808FBCB
:100600000CF7C8E7414698E7704700BF00000000BC
:1006100001F0FF01102A2BDB10F0070F08D010F8B3
:10062000013B013A8B422DD010F0070F42B3F6D1B7
:10063000F0B441EA012141EA014122F007047FF0D0
:1006400000070023F0E80256083C85EA010586EA27
:10065000010685FA47F5A3FA87F586FA47F6A5FA63
:1006600087F68EB9EED1F0BC01F0FF0102F007026F
:1006700032B110F8013B013A83EA010313B1F8D11A
:100680000020704701387047002D06BF35460338FB
:10069000073815F0010F07D1013015F4807F02BF34
:1006A000013015F4C03F0130F0BC0138704700BF85
:1006B0002E4AD2F8883043F47003C2F888302C4AAE
:1006C000136803F00F03062B05D8136823F00F03FC
:1006D00043F007031360274B1A6842F001021A60C7
:1006E00000221A61244A19680A4021491A600A68DE
:1006F000100705D50A6822F00F0242F007020A60CF
:1007000000221E499A61DA611A6299621C49D96213
:100710001C4919635A639963DA6319645A64196846
:1007200021F4802119601A66174B1B686FF30F03C1
:10073000B3F1005F03D2154B0122C3F808210D4B22
:10074000D3F8D420D2040FD4D3F8D42043F2D2016A
:1007500042F48052C3F8D4200D4A1160D3F8D4205B
:1007600022F48052C3F8D420704700BF00ED00E0AF
:1007700000200052004402587FEDF6EA0002020217
:100780000000FF01800201010010005C00800051A8
:1007900000400052044BDA6842F00202DA605A6804
:1007A0009204FCD5704700BF004802580749030275
:1007B000CA6803F4E06322F4E0621204120C1343EB
:1007C00043F0BF6343F40033CB60704700ED00E0BB
:1007D000164B30B5DC68C4F30224C4F10703251DB1
:1007E000042B28BF0423062D4FF0FF358CBF033C9C
:1007F000002405FA03F3002805FA04F521EA0303AF
:1008000022EA050203FA04F343EA02034FEA031360
:10081000DBB206DB00F1604000F5614080F8003398
:1008200030BD00F00F00024A1354F9E700ED00E07C
:1008300014ED00E0002807DB0123410900F01F0050
:10084000024A834042F82130704700BF00E100E0D7
:100850000138B0F1807F0BD24FF0E023054AF02140
:100860005861002082F82310072298611A617047AE
:100870000120704700ED00E0BFF35F8F044B5A6A20
:1008800022F480325A620022C3F89420704700BFDD
:1008900000ED00E0064B40F00100C3F894005A6AF6
:1008A00042F480325A62BFF34F8FBFF36F8F7047AD
:1008B00000ED00E04378144AC2F89830D2F8A03036
:1008C00023F00103C2F8A0304368C2F89C30C37A19
:1008D000017B1B0643EA017301780B43817A43EAEB
:1008E000C143417B43EA8143817B43EA4143C17B6E
:1008F00043EA0143417A43EA0123017A43EA41038F
:10090000C2F8A030704700BF00ED00E0F8B5044623
:10091000002874D00368D8075ED42368990700F1D3
:10092000AD802368DA0627D59C4A1369916A03F0E3
:100930003803082B07D0182B40F0038101F0030384
:10094000012B40F0FE801368DB0502D5E369802BA4
:1009500055D101F035FF41F20303216A98428F4BD4
:1009600000F2E8805A68202922F0F8420CBF42F0D9
:10097000804242EA81625A602368190700F12381AC
:1009800023689A0600F1448123685D071ED5844DD3
:100990002B6843F480732B6001F00CFF06462B6834
:1009A000DA0540F15A81A3687C4D012B40F05C814F
:1009B0002B6F43F001032B6741F2883701F0FAFEF9
:1009C000764E0546336F9B0740F17481616A0029BA
:1009D00040F0778100202BE0704A1369916A03F0A0
:1009E0003803102B05D0182B0BD101F00303022B79
:1009F00007D113689A0390D56368002B8DD101202D
:100A000016E06368654DB3F5803F12D12B6843F45F
:100A100080332B6001F0CEFE604E054633689B03A9
:100A20003FF57BAF01F0C6FE401B6428F6D90320DA
:100A3000F8BDA3B92B6823F480332B602B6823F413
:100A400080232B6001F0B6FE06462B689F037FF5DE
:100A500064AF01F0AFFE801B6428F6D9E7E7B3F579
:100A6000A02F2B6803D143F480232B60CEE723F41F
:100A700080332B602B6823F48023CAE74749E26860
:100A80000B69886A13F0380303D0182B2AD180072A
:100A900028D10B685B0701D5002AB0D03F4D2B68E9
:100AA00023F0190313432B6001F084FE06462B68E4
:100AB0005F0711D501F084FE41F2030322699842D9
:100AC0006B6822D823F47C33402A0CBF43F40033F4
:100AD00043EA02336B6024E701F06CFE801B0228BE
:100AE000E5D9A4E72D4D2B68A2B123F019031343D8
:100AF0002B6001F05FFE06462B685807DAD401F040
:100B000059FE801B0228F7D991E723F0FE4343EA00
:100B10000263DFE723F001032B6001F04BFE064682
:100B20002B6859077FF5FDAE01F044FE801B0228BB
:100B3000F6D97CE7DA6822F07C5242EA0162DA6098
:100B40001AE7E369154D6BB32B6843F080032B6004
:100B500001F030FE06462B68DF0511D501F030FEAE
:100B600041F20303226A984210D86B68202A23F0CE
:100B7000F8430CBF43F0804343EA82636B60FBE6BB
:100B800001F018FE801B0228E5D950E7EB6823F03E
:100B90007C5343EA0263EB60EEE600BF0044025878
:100BA000004802582B6823F080032B6001F002FEFE
:100BB00006462B68D8057FF5DFAE01F0FBFD801BF4
:100BC0000228F6D933E76369A34D83B16B6F43F015
:100BD00001036B6701F0EEFD06466B6F9B073FF567
:100BE000CFAE01F0E7FD801B0228F6D91FE76B6F3F
:100BF00023F001036B6701F0DDFD06466B6F9F0775
:100C00007FF5BEAE01F0D6FD801B0228F6D90EE7B7
:100C1000A369914D83B12B6843F480532B6001F09D
:100C2000C9FD06462B6898043FF5AEAE01F0C2FD43
:100C3000801B0228F6D9FAE62B6823F480532B6038
:100C400001F0B8FD06462B6899047FF59DAE01F0D2
:100C5000B1FD801B0228F6D9E9E601F0ABFD801B4F
:100C600064287FF69CAEE2E6B3B92B6F41F2883779
:100C700023F001032B672B6F23F004032B6701F094
:100C800099FD06462B6F98077FF5A0AE01F092FD07
:100C9000801BB842F6D9CAE6052B2B6F03D143F06F
:100CA00004032B6784E623F001032B672B6F23F0EB
:100CB000040380E601F07EFD401BB8427FF682AE61
:100CC000B5E6654D2B6903F03803182B78D02B68F7
:100CD000022923F080732B6065D101F06BFD06467D
:100CE0002B68990159D4AB6AA26A23F47C7323F070
:100CF00003031343E26A43EA0213AB62636BA26B22
:100D0000013B013A5B0212049BB202F4FE02134360
:100D1000226B013AC2F308021343E26B013A120656
:100D200002F0FE4213432B63EB6A23F00103EB62F4
:100D30006B6BA26C6FF3CF0343EAC2036B63EB6A86
:100D4000226C23F00C031343EB62EB6A626C23F01A
:100D500002031343EB62EB6A43F48033EB62EB6A0A
:100D600043F40033EB62EB6A43F48023EB62EB6AFB
:100D700043F00103EB622B6843F080732B6001F0BA
:100D800019FD354D04462B689A013FF523AE01F05D
:100D900011FD001B0228F6D949E601F00BFD801B6E
:100DA00002289DD943E601F005FD04462B689B010E
:100DB0007FF510AE01F0FEFC001B0228F6D936E6E6
:100DC0000129AA6A2B6B3FF41AAE02F00301A06A54
:100DD00081427FF414AEC2F30512E16A8A427FF4C5
:100DE0000EAE226BC3F30801013A91427FF407AEC5
:100DF000626BC3F34621013A91427FF400AEA26BCD
:100E0000C3F30641013A91427FF4F9ADE26BC3F3BB
:100E10000663013A93427FF4F2AD6B6BA26CC3F3AD
:100E2000CC039A423FF4D6AD0B4DEB6A23F001039D
:100E3000EB6201F0BFFC064601F0BCFCB042FBD007
:100E40006B6BA26C6FF3CF0343EAC2036B63EB6A75
:100E500043F00103EB62BDE500440258494B1A69B7
:100E600002F03802102A30B500F08880182A0CD021
:100E7000002A40F085801A68434812F0200F03D002
:100E80001B68C3F3C103D84030BD996A9D6ADC6A10
:100E900015F47C7FC5F305105A6BF5D0C2F3CC0274
:100EA00004F0010401F0030107EE900A6243B7EE7B
:100EB000006A0129B8EEE77A06EE902AFAEEE96AAE
:100EC0004ED002293ED000294AD11A68920627D571
:100ED00019682D4AC1F3C1011B6BCA40C3F3080353
:100EE00007EE902AF8EEE75AC5EE877A07EE103A39
:100EF000B8EEC77A37EE267A37EE067A67EE877A4B
:100F0000204B1B6BC3F34623013307EE103AF8EE78
:100F1000C76A87EEA67AFCEEC77A17EE900AB3E7A7
:100F20001B6BC3F3080307EE903AF8EEE77A77EE0F
:100F3000A67A77EE867A9FED156AC6EE076A67EEA7
:100F4000A67ADDE71B6BC3F3080307EE903AF8EED1
:100F5000E77A77EEA67A77EE867A9FED0D6AECE770
:100F60001B6BC3F3080307EE903AF8EEE77A77EECF
:100F7000A67A77EE867A9FED076ADEE7064883E772
:100F8000064881E7004402580090D0030024744CC6
:100F900020BCBE4B0024744A40787D0100093D000E
:100FA0002DE9F0410D46044610B90120BDE8F0815D
:100FB000884A136803F00F038B42C0F093802368C4
:100FC0005F0700F19B801E070BD583496069CA69E2
:100FD00002F07002904204D9CA6922F07002024302
:100FE000CA61D8060BD57C49A069CA6902F4E062DF
:100FF000904204D9CA6922F4E0620243CA619906A8
:101000000BD57549E0690A6A02F07002904204D972
:101010000A6A22F0700202430A629A070BD56E49EF
:10102000E0688A6902F00F02904204D98A6922F0CE
:101030000F0202438A61DF076ED423689E0700F126
:10104000A18064490A6802F00F02AA4200F2A88057
:10105000580700F1B18019070BD55F496069CA696B
:1010600002F07002904204D2CA6922F07002024378
:10107000CA61DA060BD55849A069CA6902F4E06270
:10108000904204D2CA6922F4E0620243CA619B061C
:101090000BD5514AE169136A03F07003994204D2F7
:1010A000136A23F070030B431362FFF7D7FE4A491C
:1010B0004A4A8B69C3F30323D35C03F01F03D84070
:1010C0008B6903F00F03D35C454A03F01F0320FA3A
:1010D00003F31360434B1860434BBDE8F0411868BD
:1010E00001F008BB136823F00F030B431360136870
:1010F00003F00F038B427FF458AF60E73649206955
:101100008A6902F0700290427FF65DAF8A6922F030
:10111000700202438A6156E72F4BA1689A6922F454
:1011200070620A439A6161681A6802291DD112F43B
:10113000003F3FF43AAF1A6941F28838264F22F057
:1011400007020A431A6101F035FB06463B696268F3
:1011500003F03803B3EBC20F3FF46FAF01F02AFB8B
:10116000801B4045F2D9032020E7032902D112F069
:10117000007FDEE7012902D112F4807FD9E712F067
:10118000040FD6E71449E0688A6902F00F02904222
:10119000BFF457AF8A6922F00F0202438A6150E719
:1011A0000A6822F00F022A430A600A6802F00F025E
:1011B000AA427FF4FAAE4BE7074920698A6902F038
:1011C00070029042BFF447AF8A6922F07002024376
:1011D0008A6140E70020005200440258489D000800
:1011E00000000020040000200C00002008B5FFF7DC
:1011F00035FE0B4A0B4993699269C3F3032302F04E
:101200000F02CB5C03F01F0320FA03F3885C064A4D
:1012100000F01F0023FA00F01060044A136008BDBC
:1012200000440258489D00080000002004000020EF
:1012300008B5FFF7DBFF054B054ADB69C3F3021373
:10124000D35C03F01F03D84008BD00BF0044025820
:10125000489D000808B5FFF7C9FF054B054ADB6943
:10126000C3F30223D35C03F01F03D84008BD00BFC3
:1012700000440258489D0008F8B5394C06460D4612
:10128000A36A03F00303032B67D0236823F0806372
:10129000236001F08FFA074623681A0149D4A36A34
:1012A000326823F47C3343EA0233A362B368F26802
:1012B000013B013A5B0212049BB202F4FE021343AB
:1012C0007268013AC2F3080213433269013A120606
:1012D00002F0FE421343A363E36A726923F0C00382
:1012E0001343E362E36AB26923F020031343E3622A
:1012F000E36A23F01003E362E36BF2696FF3CF0359
:1013000043EAC203E363E36A43F01003E362E36A80
:10131000B5B943F40023E362114C236843F08063C2
:10132000236001F047FA054623681B010FD5002012
:1013300005E001F03FFAC01B0228ADD90320F8BD3B
:10134000012D0CBF43F4801343F40013E3E701F0D5
:1013500031FA401B0228E7D9F0E70120EFE700BF90
:1013600000440258F8B5394C06460D46A36A03F00E
:101370000303032B67D0236823F08053236001F01D
:1013800019FA074623689A0049D4A36A326823F001
:101390007C7343EA0253A362B368F268013B013AEB
:1013A0005B0212049BB202F4FE0213437268013A1C
:1013B000C2F3080213433269013A120602F0FE42F8
:1013C00013432364E36A726923F440631343E362C3
:1013D000E36AB26923F400731343E362E36A23F41C
:1013E0008073E362636CF2696FF3CF0343EAC20375
:1013F0006364E36A43F48073E362E36AB5B943F478
:101400008003E362114C236843F08053236001F0B2
:10141000D1F9054623689B000FD5002005E001F0B7
:10142000C9F9C01B0228ADD90320F8BD012D0CBF9E
:1014300043F4000343F08073E3E701F0BBF9401B82
:101440000228E7D9F0E70120EFE700BF0044025887
:101450002DE9F8430368054618011ED5AB6EB3F5B8
:10146000001F2BD00FD8D3B1B3F5801F1DD001269C
:101470002B68D90551D5AB6D042B4DD8DFE803F0AF
:10148000243F46292900B3F5401FF0D1854AA96EB3
:10149000136D23F440130B4313650026E8E7814ADC
:1014A000D36A43F40033D362F0E7022105F1080068
:1014B000FFF7E2FE06460028DAD1E7E7022105F150
:1014C0002800FFF74FFFF5E7764AD36A43F400336D
:1014D000D36234461CBB734AA96D136D23F0070316
:1014E0000B4313652B689A0528D5EB6D802B43D0F1
:1014F00017D8A3B3402B38D0012634461EE0002174
:1015000005F10800FFF7B8FE0446E3E7002105F106
:101510002800FFF727FFF7E701263446E2E72646D3
:10152000E0E7C02B02D0B3F5807FE5D154BB5D4A24
:10153000E96D136D23F4E0730B4313652B685B05B2
:1015400031D5D5F8A830B3F5800F49D01CD8002B81
:1015500039D0B3F5001F3CD00126344623E0514A70
:10156000D36A43F40033D362E0E7002105F10800B9
:10157000FFF782FE0446D9E7002105F12800FFF7B6
:10158000F1FEF7E72646D9E7B3F5C00F02D0B3F571
:10159000000FE1D154BB434AD5F8A810936D23F452
:1015A00060030B4393652B681F0530D5D5F8AC302D
:1015B000B3F1007F45D01BD8B3B3B3F1807F39D0EE
:1015C0000126344623E0374AD36A43F40033D3621A
:1015D000E0E7002105F10800FFF74EFE0446D9E7D9
:1015E000002105F12800FFF7BDFEF7E72646DAE700
:1015F000B3F1407F02D0B3F1806FE1D13CBB294A07
:10160000D5F8AC10936D23F0E0630B4393652B6822
:10161000980128D5EB6C202B3BD01AD8DBB1102BCE
:1016200031D0012634461EE01E4AD36A43F400330B
:10163000D362E3E7002105F10800FFF71DFE044631
:10164000DCE7002105F12800FFF78CFEF7E72646CE
:10165000DDE7302BE5D11CBB124AE96CD36C23F0DB
:1016600030030B43D3642B68D9042CD52B6EB3F510
:10167000005F74D018D8002B64D0B3F5805F67D0BA
:10168000012634461FE0074AD36A43F40033D3628D
:10169000E1E7022105F10800FFF7EEFD0446DAE775
:1016A0002646E0E700440258B3F5405F02D0B3F5A8
:1016B000804FE5D1002C58D19D4A296E136D23F43B
:1016C000E0430B4313652B689A040BD56B6EB3F59F
:1016D000003F64D04BD8002B51D0B3F5803F57D09A
:1016E000012634462B685B040CD5D5F8B030B3F135
:1016F000005F75D05BD8002B61D0B3F1805F68D0FC
:10170000012634462B681F0411D52B6FB3F1805F7F
:101710006ED0B3F1005F71D0002B76D1002C77D161
:10172000834A296F136D23F040530B4313652B68D5
:10173000D8017DD5AB6C032B00F2BF80DFE803F04E
:101740006F6AB66F7A4AD36A43F40033D362B1E763
:10175000002105F10800FFF78FFD0446AAE70021EC
:1017600005F12800FFF7FEFDF7E72646ABE723F477
:101770008032B2F5802F02D0B3F5403FB0D1A4B98A
:101780006B4A696E136D23F4E0230B431365A9E7DD
:10179000012105F10800FFF76FFD0446EFE7012185
:1017A00005F12800FFF7DEFDF7E726469AE723F06C
:1017B0008052B2F1804F02D0B3F1405FA0D1ACB9FA
:1017C0005B4AD5F8B010936D23F0E0430B4393656B
:1017D00098E7012105F10800FFF74EFD0446EEE70A
:1017E000012105F12800FFF7BDFDF7E7264689E74F
:1017F0004F4AD36A43F40033D3628FE7012105F1E6
:101800000800FFF739FD044688E7012634468EE7D5
:1018100026468CE7464AD36A43F40033D362002C51
:101820004ED1434AA96CD36C23F003030B43D3641A
:101830002B6859024ED53F4F3B6843F480733B60A1
:1018400000F0B8FF80463B68DA053BD5002C75D127
:10185000374BD5F8B4001A6F424012F4407F0BD0DA
:101860001A6F196F22F4407241F480311967196FB1
:1018700021F4803119671A67B0F5807F42D0D5F81E
:10188000B4302B4903F44072B2F5407F4BD1086964
:10189000294A20F47C5002EA131202430A61C3F37E
:1018A0000B03234A116F0B43136713E0022105F169
:1018B0000800FFF7E1FC0446B1E701263446B7E72C
:1018C0002646B5E700F076FFA0EB08006428BAD9F9
:1018D000032634462B68D80709D5EB6F102B45D06B
:1018E0002ED8002B32D0082B39D0012634462B6855
:1018F000990751D5AB6F052B64D8DFE803F0453F5E
:101900005D45454500F056FFDFF82480074641F26B
:101910008839D8F870309B07B1D400F04BFFC01B5A
:101920004845F6D9D4E70A6922F47C52B6E700BFED
:101930000044025800480258CFFFFF002646C9E77E
:1019400023F00802202A01D0182BCED1A4B9204AB6
:10195000E96F536D23F038030B435365C7E701214B
:1019600005F10800FFF788FC0446EFE7012105F1C7
:101970002800FFF7F7FCF7E72646B8E7012105F155
:101980000800FFF779FC0446FCB9114AA96F536DB2
:1019900023F007030B4353652B685A072BD5D5F863
:1019A0009430052B00F26E81DFE813F01A0014006A
:1019B00066011A001A001A00012105F12800FFF73C
:1019C000D1FCE0E701263446E6E72646E4E700BF1F
:1019D00000440258012105F10800FFF74DFC0446C0
:1019E000002C40F05281AA4AD5F89410936D23F050
:1019F00007030B4393652B689B0610D5D5F89030F1
:101A0000B3F1005F00F0608100F24481002B00F030
:101A10004A81B3F1805F00F05081012634462B6883
:101A20005F0610D5D5F89C30B3F5006F00F06E81DD
:101A300000F25281002B00F05881B3F5806F00F066
:101A40005E81012634462B68180610D5D5F8A030E3
:101A5000B3F5804F00F07C8100F26081002B00F034
:101A60006681B3F5005F00F06C81012634462B6877
:101A7000190714D5D5F88430B3F5805F07D102215A
:101A800005F12800FFF76EFC002818BF0126804AE8
:101A9000D5F88410536D23F440530B4353652B68E2
:101AA000DA0614D5D5F89830B3F5807F07D1022136
:101AB00005F12800FFF756FC002818BF0126744ADC
:101AC000D5F89810936D23F440730B4393652B68FE
:101AD0001B031BD5D5F8A410B1F5803F00F0408161
:101AE000B1F5003F07D0002940F0408105F1080022
:101AF000FFF7C2FB0446002C40F03B81644AD5F856
:101B0000A410936D23F440330B4393652B685F035C
:101B10000FD5D5F88830B3F5001F00F03B81B3F541
:101B2000401F00F02D81B3F5801F00F024810126B5
:101B300034462B68D80309D52B6D002B00F0338178
:101B4000B3F5803F00F03D81012634462B689900B3
:101B500007D5022105F12800FFF704FC002818BF73
:101B60000126D5E900319A0340F14381D5F8800080
:101B7000B0F5807F00F03F8100F22C81002800F05A
:101B80002F810124DF0206D541486E6F026D22F0DD
:101B9000004232430265DE0007D53D48D5F8B86003
:101BA000026922F4804232430261980206D5384825
:101BB000EE6E026D22F08072324302655A0009D542
:101BC000334A106920F4004010611069D5F8BC60F8
:101BD00030431061002B06DA2D486E6DC26C22F086
:101BE00040523243C2641F0207D5294AD5F88C00FF
:101BF000536D23F4400303435365CE0706D50021FC
:101C000005F10800FFF738FB074600B927466B6867
:101C10009C0706D5012105F10800FFF72DFB0646BC
:101C200000B93E466B68580706D5022105F1080049
:101C3000FFF722FB044600B934466B68190706D546
:101C4000002105F12800FFF78DFB064600B9264666
:101C50006B68DA0606D5012105F12800FFF782FB43
:101C6000044600B934466B689B0600F1CA80201E0A
:101C700018BF0120BDE8F883012105F12800FFF716
:101C800071FBACE601263446B5E62646B3E600BF56
:101C90000044025823F08052B2F1804F03D0B3F1D8
:101CA000405F7FF4BAAEACB95B4AD5F89010536D83
:101CB00023F0E0430B435365B1E6002105F1080032
:101CC000FFF7DAFA0446EEE7022105F12800FFF7F4
:101CD00049FBF7E72646A2E623F48062B2F5805F6F
:101CE00003D0B3F5406F7FF4ACAEACB94A4AD5F837
:101CF0009C10936D23F4E0530B439365A3E60021FE
:101D000005F10800FFF7B8FA0446EEE7022105F1F5
:101D10002800FFF727FBF7E7264694E623F4005256
:101D2000B2F5004F03D0B3F5C04F7FF49EAEACB90F
:101D3000394AD5F8A010936D23F460430B439365A3
:101D400095E6002105F10800FFF796FA0446EEE754
:101D5000022105F12800FFF705FBF7E7264686E696
:101D6000022105F12800FFF7FDFAC3E601263446FB
:101D7000CCE62646CAE6284AD36A43F40033D36247
:101D80007CB9254AD5F88810536D23F440130B43D2
:101D90005365CEE6012105F12800FFF7E3FA04467A
:101DA000EEE72646C5E61C4AD36A43F40033D36205
:101DB00074B9194A296DD36C23F480330B43D3646F
:101DC000C4E6022105F10800FFF756FA0446EFE7E2
:101DD0002646BBE620F48072B2F5007F7FF4D1AED8
:101DE000002C7FF4CFAE0C4C626D22F440720243A3
:101DF00062653446C6E6084FFA6A42F40032FA6277
:101E0000EEE7022105F12800FFF7ACFA00283FF4C5
:101E10002EAF01202EE700BF0044025808B5FFF79F
:101E2000E5F9054B054A1B6AC3F30213D35C03F0C3
:101E30001F03D84008BD00BF00440258489D000859
:101E40004F4970B58C6A8E6ACD6A16F47C3FC6F332
:101E50000533CA6B00F0908007EE903AC2F3CC03D2
:101E6000C5F3001204F00304B8EEE77A5343012CE3
:101E7000B7EE006A06EE903AFAEEE96A6ED0022CEE
:101E80005ED0002C6AD10B689B0647D50A688B6B25
:101E9000C2F3C1013B4AC3F30803CA4007EE902ACC
:101EA000F8EEE75AC5EE877A07EE103AB8EEC77A31
:101EB00037EE267A37EE067A67EE877A304A936BEA
:101EC000C3F3462307EE103AB8EEC77A37EE067A28
:101ED000C7EE876AFCEEE66AC0ED006A936BC3F357
:101EE000064307EE103AB8EEC77A37EE067AC7EE29
:101EF000876AFCEEE66AC0ED016A936BC3F3066382
:101F000006EE903AF8EEE66A76EE866A87EEA67AF4
:101F1000FCEEC77A17EE903A836070BD8B6BDFEDF5
:101F20001A5AC3F3080307EE903AF8EEE77A77EE11
:101F3000A67A77EE867AC5EE876A67EEA67ABDE75F
:101F40008B6BDFED125AC3F3080307EE903AF8EEFD
:101F5000E77A77EEA67A77EE867AECE78B6BDFEDA1
:101F60000C5AC3F3080307EE903AF8EEE77A77EEDF
:101F7000A67A77EE867ADEE7C0E90033CCE700BFC9
:101F8000004402580090D0030024744C20BCBE4B87
:101F90000024744A4F4970B58C6A8E6ACD6A16F077
:101FA0007C7FC6F305534A6C00F0908007EE903AB0
:101FB000C2F3CC03C5F3002204F00304B8EEE77AC1
:101FC0005343012CB7EE006A06EE903AFAEEE96A46
:101FD0006ED0022C5ED0002C6AD10B689B0647D5D0
:101FE0000A680B6CC2F3C1013B4AC3F30803CA4041
:101FF00007EE902AF8EEE75AC5EE877A07EE103A18
:10200000B8EEC77A37EE267A37EE067A67EE877A29
:10201000304A136CC3F3462307EE103AB8EEC77A82
:1020200037EE067AC7EE876AFCEEE66AC0ED006A14
:10203000136CC3F3064307EE103AB8EEC77A37EED7
:10204000067AC7EE876AFCEEE66AC0ED016A136C99
:10205000C3F3066306EE903AF8EEE66A76EE866A19
:1020600087EEA67AFCEEC77A17EE903A836070BDD1
:102070000B6CDFED1A5AC3F3080307EE903AF8EE43
:10208000E77A77EEA67A77EE867AC5EE876A67EE0C
:10209000A67ABDE70B6CDFED125AC3F3080307EE17
:1020A000903AF8EEE77A77EEA67A77EE867AECE762
:1020B0000B6CDFED0C5AC3F3080307EE903AF8EE11
:1020C000E77A77EEA67A77EE867ADEE7C0E9003324
:1020D000CCE700BF004402580090D0030024744CA9
:1020E00020BCBE4B0024744A2DE9F74F0023DFF8D3
:1020F000CC914FF0B0440A6832FA03F502D103B034
:10210000BDE8F08F012505FA03FA1AEA020200F091
:10211000BF804E6803274FEA4308D1F808C006F095
:10212000030507FA08FE6F1E6FEA0E0E012F33D863
:10213000876807EA0E0BCF6807FA08F747EA0B072C
:102140008760476827EA0A0AC6F300179F4047EAF4
:102150000A074760C7680CFA08FC022D07EA0E0759
:102160004CEA0707C7601CD14FEAD30C03F0070AFB
:102170004FF00F0B00EB8C0C4FEA8A0ADCF8207052
:102180000BFA0AFB27EA0B0B0F6907FA0AF747EA73
:102190000B07CCF8207004E0032DDBD1BCF1010F5C
:1021A000D8D1076805FA08F516F4403F07EA0E078C
:1021B00045EA070505606BD0D9F8F45023F0030712
:1021C00003F0030C4FF00F0E45F0020507F1B04786
:1021D0004FEA8C0CC9F8F45007F58067D9F8F45031
:1021E0000EFA0CFE05F002050195019DBD6825EA79
:1021F0000E0E314DA8424DD005F58065A8424BD05A
:1022000005F58065A84249D005F58065A84247D00C
:1022100005F58065A84245D005F58065A84243D004
:1022200005F58065A84241D005F58065A8423FD0FC
:1022300005F58065A8423DD005F58065A84214BF2C
:102240000A25092505FA0CF516F4801F45EA0E0546
:10225000BD606FEA020725680CBF3D40154316F4C8
:10226000001F256065680CBF3D40154316F4003F14
:102270006560D4F884500CBF3D401543F603C4F8A4
:102280008450D4F8805054BF3D401543C4F880506A
:10229000013330E70025D5E70125D3E70225D1E753
:1022A0000325CFE70425CDE70525CBE70625C9E7BC
:1022B0000725C7E70825C5E7000002580044025873
:1022C0000AB1816170470904FBE70000F8B50546D3
:1022D00000F070FA064645B195F83530022B06D06D
:1022E00080236B65002385F834300120F8BD2C680D
:1022F0006D4FBC422DD06D4B9C422AD018339C426E
:1023000027D018339C4224D018339C4221D0183354
:102310009C421ED018339C421BD018339C4218D0CC
:1023200003F556739C4214D018339C4211D01833D5
:102330009C420ED018339C420BD018339C4208D0DC
:1023400018339C4205D018339C4202D018339C426B
:1023500011D1236823F001032360236823F01E03B7
:102360002360636923F0800363612A6E136823F49A
:10237000807313601FE0236823F001032360236848
:1023800023F00E0323604A4B9C42EED014339C4250
:10239000EBD014339C42E8D014339C42E5D0143384
:1023A0009C42E2D014339C42DFD014339C42DCD0F8
:1023B00014339C42D9D02368DB0747D42B68EA6DDD
:1023C000BB42A86D02F01F024BD038498B4248D067
:1023D00018318B4245D018318B4242D018318B4294
:1023E0003FD018318B423CD018318B4239D0183154
:1023F0008B4236D001F556718B4232D018318B4268
:102400002FD018318B422CD018318B4229D0183163
:102410008B4226D018318B4223D018318B4220D0EA
:1024200018318B421DD0012101FA02F24260204A8C
:1024300093421AD1D5E919325A60EB6E5BBB012386
:10244000002085F8353085F834004FE700F0B2F908
:10245000801B0528AFD920236B65032385F8353011
:1024600040E73F2393408360E4E7124A9342E1D080
:1024700014329342DED014329342DBD014329342B2
:10248000D8D014329342D5D014329342D2D01432E1
:102490009342D4D1CEE71A6822F480721A60D5E94B
:1024A0001C325A60CBE700BF1000024028000240F7
:1024B000085402581C54025808B528B190F8353019
:1024C000022B03D080234365012039E003683E4A94
:1024D00093422DD0183293422AD01832934227D0FB
:1024E0001832934224D01832934221D018329342AA
:1024F0001ED0183293421BD01832934218D002F5E6
:102500005672934214D01832934211D0183293422B
:102510000ED0183293420BD01832934208D01832A2
:10252000934205D01832934202D01832934208D118
:10253000042280F835201A6822F001021A60002077
:1025400008BD1A6822F001021A601A6822F00E0211
:102550001A601E4A934214D01432934211D014329E
:1025600093420ED0143293420BD01432934208D0CF
:102570001432934205D01432934202D01432934263
:1025800017D1026E136823F480731360D0E9161319
:1025900003F01F02012393404B60D0E919325A60C7
:1025A000C36E33B11A6822F480721A60D0E91C320B
:1025B0005A60012380F83530002380F83430036DF1
:1025C000002BBCD09847BAE71000024008540258CC
:1025D000024A136843F4807313607047004802583E
:1025E00000283FD0204A0168136823F0E0030B4322
:1025F00013604FF0B043D3F8842022F48032C3F844
:102600008420D3F8802022F48032C3F880201A6816
:1026100022F480321A605A6822F480325A6042688A
:10262000D10305D5D3F8801041F48031C3F8801070
:10263000900307D54FF0B041D1F8843043F4803394
:10264000C1F88430D10705D54FF0B0410B6843F491
:1026500080330B60930705D54FF0B042536843F4C5
:1026600080335360704700BF00480258024A136825
:1026700043F01003136070470048025838B5104CFF
:10268000E36813F0040FE36805D103F00703181A99
:1026900018BF012038BD23F007031843E06000F0A5
:1026A00089F8054663689B0401D50020F2E700F035
:1026B00081F8401BB0F57A7FF4D90120EAE700BF2A
:1026C0000048025838B50A4CA36843F00103A360E0
:1026D00000F070F80546A368DB0301D5002038BD83
:1026E00000F068F8401BB0F57A7FF4D90120F6E7D6
:1026F0000048025838B50F4B05461A780AB9012030
:1027000038BD4FF47A73B3FBF2F30B4A1068B0FB99
:10271000F3F0FEF79DF804460028F0D10F2DEED817
:10272000024629464FF0FF30FEF752F8034B204691
:102730001D60E5E708000020040000200C000020D8
:1027400010B50320FEF732F8FEF788FB0F49104A58
:102750008B69C3F30323D35C03F01F03D8408B6959
:1027600003F00F03D35C0B4A03F01F0320FA03F3BB
:102770001360094B18600F20FFF7BCFF044618B91F
:1027800002F0ACF9204610BD0124FBE700440258DA
:10279000489D00080000002004000020034A044B6C
:1027A00011681B780B441360704700BF8400002041
:1027B00008000020014B1868704700BF840000200B
:1027C000014B1868000C70470010005CF0B5D1E9AF
:1027D00000670C698D6807BB2C4344EA8644D1E945
:1027E000066535434E6935430E6A45EA0665CE688F
:1027F00045EA0645866E7343D0F8846006EB830095
:1028000046F823400024456000F108050E48CB68D7
:102810000432C35CA34205D8F0BD34432C4344F0DA
:102820008044DCE712F8023C12F8016C1B0443EA16
:10283000066312F8046C334312F8036C43EA062370
:102840002B510434E3E700BF589D00082DE9F04FF9
:1028500099B004464C22CC4905A806F0F1FD002CA5
:1028600000F0B381C94B22689A4204BF03F580731C
:10287000636094F8983003F0FF0223B9204684F88F
:10288000992001F0BFFF2268936923F01003936140
:10289000FFF790FF054623689A69110700F18681CA
:1028A0009A6942F001029A61FFF784FF05462368A6
:1028B0009A69D20740F18D819A6942F002029A61C9
:1028C000227C012A9A690CBF22F0400242F04002A9
:1028D0009A61627C012A9A690CBF42F4804222F418
:1028E00080429A61A27C012A9A690CBF22F480522C
:1028F00042F480529A619A69A06822F440720243BD
:102900009A619A6922F0A4029A611A6922F010026F
:102910001A61E268012A40F063819A6942F0040278
:102920009A61A269B0F5407F02F1FF31E26902F1DC
:10293000FF324FEA022242EA4162216A01F1FF318D
:1029400042EA0102616901F1FF3142EA0142DA61C2
:102950000ED1E26A511E226B013A120142EA0122B3
:10296000A16A01390A43616A013942EA0142DA6027
:10297000266E2EB1D3F8C020616E0A43C3F8C02082
:10298000D4F85CE0A26E16EB0E0F01920CD018A8E2
:102990000199D3F8C82000EB810122F0070251F819
:1029A0004C1C0A43C3F8C820D4E910C20392BCF1FE
:1029B000000F0CD018A80399D3F8BC2000EB8101BC
:1029C00022F0070251F84C1C0A43C3F8BC20D4E99A
:1029D0001289B8F1000F0CD018A9D3F8BC2001EB74
:1029E000890122F0700251F84C1C42EA0112C3F82E
:1029F000BC20226DD4F854B0029262B118A9D3F869
:102A0000BC2001EB8B0122F4E06251F84C1C42EA3D
:102A10000122C3F8BC205D4A934204D161688A68F0
:102A200022F003028A600022594D606BC4F89C209A
:102A3000C4F894200122D4F83CA084F89820D3F85C
:102A400084202A4042EA8002C3F88420D3F884100C
:102A5000A26B21F47F0141EA0241C3F8841081187E
:102A6000D3F8887000F180502F4000F52C5047EAD1
:102A7000810701EB4A01C3F888708000D3F88870A1
:102A800027F4FE0747EA0A47C3F88870D3F8A07016
:102A90002F4047EA8107C3F8A070D3F8A07027F44D
:102AA000FE0747EA0C47C3F8A070039F07FB0CFC26
:102AB000D3F8B07061442F4047EA8107C3F8B07083
:102AC000D3F8B07027F4FE0747EA0847C3F8B070A0
:102AD00009FB08F7D3F8AC8001EB070908EA050801
:102AE000029948EA89080BFB01FBC3F8AC80D3F8D4
:102AF000F08009EB0B01D4F8589008EA050848EA81
:102B0000810801EB4901C3F8F080D3F8F08028F484
:102B10007C1848EA0948C3F8F080D3F8C08008EA76
:102B2000050848EA8101C3F8C010D3F8C01021F4A9
:102B30007C1141EA0E41C3F8C010D3F8C01021F057
:102B40007C5141EA0661C3F8C01000EB8203019A90
:102B5000236703EBCA0302FB0EFE636703EB8C03E0
:102B60005643A36703EB8703E066E36703EB8B033E
:102B7000C4F8803003EBC903C4F8843003EB8E0340
:102B800003EB860606E000BFFC9C000800A00040A6
:102B90000300FFFFC4F88830204BC4F890609E42C9
:102BA00035D9D4F89C3043F0200309E0FFF702FE4A
:102BB000401B0A287FF66FAED4F89C3043F0010327
:102BC000C4F89C30032384F89830012019B0BDE884
:102BD000F08FFFF7EFFD401B0A287FF668AEEBE7AA
:102BE000002A3FF49EAE022A0AD09969032A41F0D6
:102BF00080019961196941F0100119617FF491AE6A
:102C00009A6942F020028BE6002340F8043BD4F896
:102C100090309842F8D30020D8E700BFFCD30040A2
:102C200030B590F89830013B012B2DD8D1E90054F4
:102C3000D1E90323BDB9072A4FEA03430BD1CA697F
:102C400043EA02238A69134343F06053C26E42F899
:102C50002430002030BD8D68496943EA85730B43F9
:102C600043EAC263F2E7072A43EA42731ABF8D6858
:102C70004A698A69016F18BF42EA857201EBC40094
:102C800041F834304260E4E7D0F89C3043F002036E
:102C9000C0F89C300120DDE710B590F89840012C79
:102CA0000BD10468029840EA430040EA8202002007
:102CB00042EA0111C4F8801010BDD0F89C3043F0F6
:102CC0000403C0F89C300120F6E790F89830012BFF
:102CD0000CD10268022380F89830936923F0010335
:102CE00093610023C0F89C3018467047D0F89C30A0
:102CF00043F00403C0F89C3001207047F8B590F809
:102D000098300446022B26D10668D6F8C03013F05E
:102D10007C5F07D1D0F89C3043F020030120C4F839
:102D20009C30F8BDD6F8C45015F4001504D0D0F886
:102D30009C3043F40073F1E7D6F8C470C7F304473E
:102D40003B46FFF743FD01222846BA40C6F8D02093
:102D5000C4F89420E5E7D0F89C3043F00803DDE7A1
:102D60009C46F0B590F89830022B40F0B380402993
:102D700068D10468D4F8A03013F4FE0F04D1D0F861
:102D80009C3043F0200307E0D4F8A4305F0607D15D
:102D9000D0F89C3043F48073C0F89C300120F0BD23
:102DA000D4F8A450D4F8A430C5F30525DE0108D525
:102DB000D4F8A030002B04DAD4F8A030013505EAAD
:102DC0001345436C446F6B4304EB8304236803F0A7
:102DD000804353602668002B60D1C6F38A46166094
:102DE000073454F8073C002603F00053936054F86E
:102DF000073C03F00043136134F8033CD36134F81B
:102E0000013C03F00F03D36054F8033C03F4801338
:102E1000536154F8033C03F400139361237803F0E7
:102E20007F03136254F8033CDB0F53622C4BD768CB
:102E3000DF5DB74235D84029026838D1C2F8A850C2
:102E40000020ACE741291ED10468D4F8B03013F457
:102E5000FE0F94D0D4F8B4305D0699D0D4F8B450B5
:102E6000D4F8B430C5F30525DB0108D5D4F8B0306B
:102E7000002B04DAD4F8B030013505EA1345C36CF1
:102E8000846F6B43A0E7036D8B427FF678AF436D91
:102E90000025C46F4B4304EB830497E726F060469C
:102EA0009DE714F8017F0CF806700136BFE7412951
:102EB00002D1C2F8B850C3E71F294FF0010303D86D
:102EC0008B40C2F89830BBE701F01F018B40C2F87D
:102ED0009C30B5E7D0F89C3043F008035CE700BFB6
:102EE000589D0008036800205B6C03F007020A602D
:102EF000C3F302224A6003F018028A60C3F340124F
:102F0000CA60C3F380120A61C3F3C0124A61C3F3FB
:102F1000C0228A61C3F30032CA61C3F340320A623D
:102F2000C3F38032C3F306434A628B62704703687F
:102F300000201B6CDAB20A60C3F306224A60C3F3B6
:102F4000C032C3F307438A60CB60704740290368EF
:102F500004D1D3F8A40000F07F007047D3F8B40088
:102F6000F9E70368D3F8C40000F03F0070470000A1
:102F700090F89830013B012B2DD80368986D0842DA
:102F80001FD1D86D40F00100D865880504D5D3F86D
:102F9000E0001043C3F8E000480504D5D3F8E4008E
:102FA0000243C3F8E42021F04042586D22F440125D
:102FB000024300205A650C4A536943EA91735361F6
:102FC0007047986D31EA000003D1D86D40F00200DF
:102FD000DAE70320D8E7D0F89C3043F00203C0F8CA
:102FE0009C300120704700BF00A800407047704728
:102FF0007047704770477047704770477047704719
:103000007047704770477047704700002DE9F74FD1
:10301000AC4983460C694A6904EA02030268146DEC
:10302000556D00939B0704EA050A146D556D0193D5
:103030000AF4704A04EA0509146D556D166D09F01D
:103040000F0904EA0508546D176D2640546D556D3F
:1030500008F0F008274006F07156EB05146D07F0F4
:10306000607708D5E30506D54FF480731365002219
:103070000A61FFF7C3FF680511D561050FD5DBF8BD
:1030800000204FF48063D2F8DC00D2F8E41013651E
:1030900000238C4A014058461361FFF7ABFF019BA8
:1030A00063B1DBF800200021009B5846116585497B
:1030B00003F003020A610199FFF798FFBAF1000FCC
:1030C0000AD0DBF8002000215846C2F850A07D4A03
:1030D00011615146FFF78BFFB9F1000F0AD0DBF801
:1030E000002000215846C2F85090764A11614946A6
:1030F00001F00EFAB8F1000F0AD0DBF80020002131
:103100005846C2F850806F4A11614146FFF770FF80
:103110002A050CD523050AD5DBF800204FF4006101
:10312000584611650021674A116101F0F6F9A805BA
:1031300011D5A1050FD5DBF800204FF40073D2F8AC
:10314000D800D2F8E010136500235E4A01405846CB
:103150001361FFF74EFF2A030CD523030AD5DBF8D2
:1031600000204FF40021584611650021554A116195
:10317000FFF741FFE8030CD5E1030AD5DBF8002097
:103180004FF480315846116500214E4A1161FFF716
:1031900033FF6A030CD563030AD5DBF800204FF434
:1031A0008021584611650021464A1161FFF725FF2D
:1031B000A803DBF800100DD5A2030BD54FF40032A5
:1031C00000200A653F4A1061DBF89C2042F0800233
:1031D000CBF89C203FB10F6500213A4A5846116157
:1031E0003946FFF70DFFDBF8001046B1354A0020E5
:1031F0000E651061DBF89C203243CBF89C20324AEC
:10320000914263D1DBF8042091688B075ED0116A8C
:10321000506A176A0140506A166A0740506A156A78
:1032200011F00F0106EA0006506A146A07F0300731
:1032300005EA0005506A06F4C076D2F8249004EA44
:10324000000405F4FC45D2F8208004F4F02403D0F7
:1032500058461162FFF7D5FE37B1DBF80420394636
:1032600058461762FFF7CEFE19F0400F0ED018F047
:10327000400F0BD0DBF804004027C16BC26B090C78
:10328000076202F03F025846FFF7BDFE36B1DBF899
:103290000420314658461662FFF7B6FE3DB1DBF812
:1032A00004201562DBF89C202A43CBF89C206CB1EB
:1032B000DBF804201462DBF89C202243CBF89C202E
:1032C00004E000BF00A8004000A00040DBF89C2004
:1032D00012B15846FFF793FE03B0BDE8F08F00BF70
:1032E00010B5026852E8003F23F4907342E80031C1
:1032F00002680029F5D10F4C02F1080353E8003FA2
:10330000234002F1080C4CE800310029F4D1C36ECF
:10331000012B07D152E8003F23F0100342E80031AF
:103320000029F7D12023C0F88C300023C3664367FF
:1033300010BD00BFFEFFFFEF026852E8003F23F020
:10334000800342E8003102680029F5D152E8003FCD
:1033500043F0400342E800310029F7D17047D0F82C
:1033600088200346212A11D1B0F8562092B20AB91A
:10337000FFF7E2BF026D016812F8010B88621A655F
:10338000B3F85620013A92B2A3F856207047D0F80D
:1033900088200346212A13D1B0F8562092B20AB9E8
:1033A000FFF7CABF1A6D006832F8021BC1F30801AB
:1033B00081621A65B3F85620013A92B2A3F85620FA
:1033C0007047D0F88830212B10B51BD1B0F86A2097
:1033D000C2B1B0F85610036889B2A1B903F108026E
:1033E00052E8002F22F4000203F1080040E8002117
:1033F0000029F3D153E8002F42F0400243E80021B6
:103400000029F7D110BDD96909060AD5016D11F857
:10341000014B9C62B0F856300165013B9BB2A0F8AD
:103420005630013A92B2D3E7D0F88830212B10B54C
:103430001BD1B0F86A20C2B1B0F85610036889B247
:10344000A1B903F1080252E8002F22F4000203F1AF
:10345000080040E800210029F3D153E8002F42F092
:10346000400243E800210029F7D110BDD9690906BF
:103470000CD5016D31F8024BC4F308049C62B0F81E
:1034800056300165013B9BB2A0F85630013A92B22A
:10349000D1E70000D0F88830202B10B543D10029A7
:1034A00043D0002A41D0A0F856200023A0F8542091
:1034B000426EC0F890302123B2F1005F0165C0F880
:1034C00088300268836819D1B3F5805F14D104692C
:1034D000174B1849002C18BF0B46836702F10803ED
:1034E00053E8003F43F4000302F1080040E80031D4
:1034F0000029F3D1002010BD0E4BEEE7B3F5805F3D
:103500000FD104690C4B0D49002C18BF0B46836783
:1035100052E8003F43F0800342E800310029F7D130
:10352000E8E7064BF3E70220E5E70120E3E700BF09
:1035300029340008C33300088F3300085F330008C4
:10354000806B08B500F0EDFF08BD704703682DE9FA
:10355000F041D96940F60F061A68044631429D6869
:1035600010D18E0640F1978002F0200605F08057BA
:103570003E4300F09080436F002B00F08580BDE853
:10358000F0411847A84EA9482E401040304300F0A3
:103590008280CF0709D5D00507D501201862D4F85D
:1035A000900040F00100C4F890008F0709D5E807AB
:1035B00007D502201862D4F8900040F00400C4F847
:1035C00090004F0709D5E80707D504201862D4F802
:1035D000900040F00200C4F890000F070BD502F0F5
:1035E0002000304307D008201862D4F8900040F043
:1035F0000800C4F890000E050AD5500108D54FF414
:1036000000601862D4F8903043F02003C4F8903082
:10361000D4F89030002B37D08B0609D502F0200269
:1036200005F080552A4303D0636F0BB120469847BD
:1036300026682046D4F89020B36802F0280203F0F0
:10364000400353EA020521D0FFF74AFEB3685F0644
:1036500017D5226802F1080353E8003F23F0400326
:10366000083242E800310029F3D1D4F8800040B19B
:103670006F4B0365FEF720FF30B1D4F88000036D77
:103680007DE7204600F04DFFBDE8F08100F049FFE6
:10369000C4F89050F8E7E06E012840F0B880CE06FC
:1036A00040F1B580D00640F1B2801022B4F85C0041
:1036B0001A629A6852067AD5D4F880505D492A6811
:1036C0008A4221D018318A421ED018318A421BD03A
:1036D00018318A4218D018318A4215D018318A42DE
:1036E00012D018318A420FD018318A420CD001F51D
:1036F00056718A4208D018318A4205D018318A4260
:1037000002D018318A42FFD0516889B2002943D0D3
:10371000814241D2EA69A4F85E10B2F5807F2FD0D1
:1037200053E8002F22F4807243E800210029F7D1EA
:1037300003F1080252E8002F22F0010203F1080011
:1037400040E800210029F3D103F1080252E8002FDC
:1037500022F0400203F1080040E800210029F3D1E3
:103760002022C4F88C20E16653E8002F22F01002DA
:1037700043E800210029F7D1D4F88000FEF7A6FD28
:103780000223B4F85C102367B4F85E30C91A89B21A
:103790002046FFF7DAFE77E781427FF475AFEB69E9
:1037A000B3F5807F7FF470AF02232367F0E7B4F8AE
:1037B0005E20B4F85E1092B289B200293FF464AF83
:1037C000801A81B200293FF45FAF53E8002F22F442
:1037D000907243E800200028F7D1174D03F108024A
:1037E00052E8002F2A4003F1080646E8002000288E
:1037F000F4D120226067C4F88C20E06653E8002FE3
:1038000022F0100243E800200028F7D1CCE7CF02D5
:1038100014D56E0212D54FF4801220461A62BDE80C
:10382000F04100F017BE00BF0100001020010004AD
:103830004135000810000240FEFFFFEF08060BD5DF
:1038400002F0800005F40005284305D0A36F002B8B
:103850003FF41AAF204692E64F0611D556060FD513
:1038600053E8002F22F0400243E800210029F7D15D
:1038700020232046A167C4F8883000F054FE03E7F7
:103880000D0206D5500004D52046BDE8F04100F0F9
:10389000E3BDCB017FF5F8AE002ABFF6F5AE2046BA
:1038A000BDE8F04100F0D7BDD0F88C20222A08B541
:1038B000036857D15B6AB0F86010826D0B401370DB
:1038C000836D01338365B0F85E30013B9BB2A0F895
:1038D0005E30B0F85E309BB2002B42D1026852E8F5
:1038E000003F23F4907342E8003103680029F5D1CA
:1038F00003F1080252E8002F22F0010203F1080C44
:103900004CE800210029F3D120224167C0F88C2027
:10391000174A0167934205D1C26E012A0ED000F00A
:10392000FEFD1EE05A681102F6D553E8002F22F082
:10393000806243E800210029F7D1EDE70022C2664A
:1039400053E8002F22F0100243E800210029F7D1AC
:10395000DA69D20601D510221A62B0F85C10FFF7BE
:10396000F4FD08BD9A6942F008029A61F9E700BFC8
:10397000000C0058D0F88C20222A08B5036854D1D6
:10398000596AB0F860201140826D22F8021B8265EE
:10399000B0F85E20013A92B2A0F85E20B0F85E2046
:1039A00092B2002A40D153E8002F22F4907243E8EB
:1039B00000210029F7D103F1080252E8002F22F07C
:1039C000010203F1080C4CE800210029F3D1202268
:1039D0004167C0F88C20174A0167934205D1C26E37
:1039E000012A0ED000F09BFD1EE05A681102F6D5A8
:1039F00053E8002F22F0806243E800210029F7D12C
:103A0000EDE70022C26653E8002F22F0100243E8DF
:103A100000210029F7D1DA69D20601D510221A62F5
:103A2000B0F85C10FFF791FD08BD9A6942F00802FA
:103A30009A61F9E7000C005803682DE9F047DD6949
:103A40000446D3F800809E68D0F88C20222A40F0EB
:103A5000B780B0F86830002B00F08D80B0F860704F
:103A60004FF0000906F001064FF0040AAB0640F1E2
:103A700082802368A26D5B6A3B401370A36D0133A3
:103A8000A365B4F85E30013B9BB2A4F85E302368B6
:103A9000DD6968072AD0E9070AD518F4807F07D0C6
:103AA00001221A62D4F8902042F00102C4F890205A
:103AB000AA0708D53EB102221A62D4F8902042F03B
:103AC0000402C4F89020680708D53EB1C3F820A0CE
:103AD000D4F8903043F00203C4F89030D4F890301A
:103AE00023B1204600F01DFDC4F89090B4F85E307C
:103AF0009BB2002BBAD1226852E8003F23F48073B6
:103B000042E8003123680029F5D1304803F108026A
:103B100052E8002F024003F1080545E80021002982
:103B2000F4D120226167C4F88C20294A216793428E
:103B30000AD05A68110207D553E8002F22F080629C
:103B400043E800210029F7D1E26E012A34D1002296
:103B5000E26653E8002F22F0100243E8002100291A
:103B6000F7D1DA69D20601D510221A62B4F85C10D6
:103B70002046FFF7EAFCB4F85E309BB2D3B1B4F84C
:103B800068209A4216D9226802F1080353E8003FE0
:103B900023F08053083242E8003122680029F2D134
:103BA0000C4B636752E8003F43F0200342E80031CA
:103BB0000029F7D1BDE8F087204600F0B0FCDAE735
:103BC0009A6942F008029A61F4E700BFFEFFFFEF36
:103BD000000C0058A938000803682DE9F047DD699A
:103BE0000446D3F800809E68D0F88C20222A40F04A
:103BF000B480B0F86830002B00F08A80B0F86070B4
:103C00004FF0000906F001064FF0040AAB067FD51D
:103C10002368A26D596A394022F8021BA265B4F8E4
:103C20005E20013A92B2A4F85E20DD6968072AD0CE
:103C3000E9070AD518F4807F07D001221A62D4F868
:103C4000902042F00102C4F89020AA0708D53EB1A6
:103C500002221A62D4F8902042F00402C4F89020A4
:103C6000680708D53EB1C3F820A0D4F8903043F0DF
:103C70000203C4F89030D4F8903023B1204600F00D
:103C800050FCC4F89090B4F85E309BB2002BBDD1CC
:103C9000226852E8003F23F4807342E80031236831
:103CA0000029F5D12F4803F1080252E8002F024005
:103CB00003F1080545E800210029F4D120226167BD
:103CC000C4F88C20284A216793420AD05A6811020E
:103CD00007D553E8002F22F0806243E80021002935
:103CE000F7D1E26E012A34D10022E26653E8002FB8
:103CF00022F0100243E800210029F7D1DA69D20648
:103D000001D510221A62B4F85C102046FFF71DFCA2
:103D1000B4F85E309BB2D3B1B4F868209A4216D999
:103D2000226802F1080353E8003F23F08053083271
:103D300042E8003122680029F2D10C4B636752E857
:103D4000003F43F0200342E800310029F7D1BDE8ED
:103D5000F087204600F0E3FBDAE79A6942F00802B8
:103D60009A61F4E7FEFFFFEF000C00587539000878
:103D70000268C3698168F0B504460069156887B0B8
:103D8000014360690143A448194328400143E068A6
:103D90001160516821F440510143A06951609F496D
:103DA0008A421CBF216A0843916821F06E4121F4C8
:103DB00030610143606A9160D16A21F00F010143D3
:103DC000D16297498A4212D1964A526D02F0380266
:103DD000182A00F0FF803BD8082A00F0F380102A50
:103DE00000F03881002A00F0E780012068E08E4969
:103DF0008A420DD18B4A526D02F00702052AF4D88F
:103E0000DFE812F07C00E0002801E80005012B004B
:103E100086498A42EED086498A42EBD085498A4259
:103E2000E8D085498A42CFD084498A42E2D0844989
:103E30008A42DFD0794B9A42D7D17A4A936D03F008
:103E40000703052BD1D8DFE803F03643484D570F61
:103E5000202A00F0DC80282AC7D1B3F5004F00F0FB
:103E600088804FF40040C2E04FF40040754B626A16
:103E7000656833F8122005EB4501B0FBF2F3994277
:103E8000B3D8B3EB053FB0D800234FF48077194681
:103E9000FCF726FA00230646680819462A46E6FB80
:103EA0000701FCF71DFA684BA0F540729A429CD8B6
:103EB0002368D86003E0FDF7B1FF0028D6D10020C9
:103EC0004FF00113A3660023C4E91D3307B0F0BD12
:103ED0006846FDF7B5FF0198EFE703A8FEF75AF82B
:103EE0000498EAE71368594813F0200FBED013680E
:103EF000C3F3C103D840B9E75548B7E7B3F5004F5E
:103F000055D10023082B3FF670AF01A252F823F0E1
:103F10003D3F0008493F0008EB3D0008EB3D00082D
:103F20004F3F0008EB3D0008EB3D0008EB3D00086B
:103F3000593F00080423E5E70823E3E7FDF778F994
:103F40000346002BBBD014E0FDF784F9F8E7684680
:103F5000FDF776FF019BF4E703A8FEF71BF8049B2F
:103F6000EFE713F0200F394B03D01268C2F3C10200
:103F7000D340606A334A616832F81020B3FBF2F331
:103F80004A0802EB43034FF6EF72B3FBF1F3A3F1E0
:103F9000100191423FF629AF23F00F02C3F3420311
:103FA000216892B21343CB6089E7294BE1E7FDF723
:103FB0003FF9002883D01AE0B3F5004FC4D0FDF7D5
:103FC00049F9F6E7B3F5004FB4D06846FDF738FF7E
:103FD0000198EEE7B3F5004F124A1368C1D013F011
:103FE000200F1A4803D01368C3F3C103D840616A95
:103FF000144A636832F81120B0FBF2F000EB530072
:10400000B0FBF3F04FF6EF73A0F110024EE7B3F5FB
:10401000004FCAD00E48EAE7F369FFCF000C005802
:104020000010014000440258004400400048004095
:10403000004C004000500040001401400078004057
:10404000007C0040689D0008FFFC0F000090D0033A
:1040500000093D00B3F5004F3FF46EAF03A8FDF734
:1040600099FF0498A5E700BF836A1A0710B506D523
:104070000168846B4A6822F4004222434A60DC07EC
:1040800006D50168C46A4A6822F4003222434A60B5
:10409000990706D50168046B4A6822F480322243EE
:1040A0004A605A0706D50168446B4A6822F48022A8
:1040B00022434A60DC0606D50168C46B8A6822F494
:1040C000805222438A60990606D50168046C8A688A
:1040D00022F4005222438A605A0610D50168446CCB
:1040E0004A68B4F5801F22F4801242EA04024A6052
:1040F00005D14A68846C22F4C00222434A601B0640
:1041000006D50268C16C536823F400230B43536047
:1041100010BD2DE9F843DDF8209004460D46174602
:1041200098462268D36935EA03030CBF01230023B4
:10413000BB4201D0002022E0B9F1FF3FF2D0FEF7F0
:1041400039FBA0EB0800484529D8B9F1000F26D06B
:1041500021680B685A07E4D5802DE2D0402DE0D0CD
:10416000CE6916F008060CD0082520460D62FFF730
:10417000B7F800230120C4F8905084F88430BDE8DB
:10418000F883CB691B05CCD54FF4006320460B6246
:10419000FFF7A6F8202384F88460C4F89030032049
:1041A000EDE773B500260446C0F89060FEF702FB09
:1041B000236805461B681A071CD56FF07E433246FC
:1041C0004FF40011009303462046FFF7A2FF88B189
:1041D000226852E8003F23F0800342E800310029C2
:1041E000F6D12023C4F888300320002384F88430DB
:1041F00002B070BD23681B685B0724D56FF07E4357
:1042000000224FF48001204600932B46FFF781FFE8
:10421000C8B1226852E8003F23F4907342E80031AD
:1042200022680029F5D102F1080353E8003F23F08A
:10423000010302F1080040E800310029F3D12023F6
:10424000C4F88C30D0E720230020C4F88830C4F8AC
:104250008C30E0662067C8E710B5044650B3D0F84C
:1042600088301BB980F8843000F0A2FB2423226838
:10427000C4F88830136823F001031360A36A13B1F4
:104280002046FFF7F1FE2046FFF772FD012811D00E
:10429000236820465A6822F490425A609A6822F0B5
:1042A0002A029A601A6842F00102BDE810401A60C2
:1042B000FFF777BF012010BD30B58165002381680D
:1042C000A0F85C20B1F5805FA0F85E20436731D193
:1042D0000369002B40F2FF1318BFFF23A0F86030E2
:1042E0000023C0F890302223C0F88C30016801F11F
:1042F000080353E8003F43F00103083141E800346C
:104300000368002CF2D1456E8468B5F1005F016945
:1043100035D1B0F86850954231D8B4F5805F29D1D5
:10432000C1B1264A426753E8002F42F4807243E845
:10433000002121E029B90369002B0CBFFF237F2353
:10434000CCE7B1F1805FC9D10369002B0CBF7F239B
:104350003F23C3E71A4A426703F1080252E8002FDD
:1043600042F0805203F1080040E800210029F3D117
:10437000002030BD114A42670029D4D1ECE7B4F5E2
:10438000805F16D151B10F4A426753E8002F42F4C3
:10439000907243E800210029F7D1E9E70A4A426711
:1043A00053E8002F42F0200243E800210029F7D112
:1043B000DEE7044A42670029E7D1F1E7393A00080D
:1043C000D93B0008A93800087539000838B5D0F87D
:1043D0008C30202B16D1B9B1B2B100230468C3666A
:1043E0000A4B9C420AD063681B0207D554E8003F81
:1043F00043F0806344E80035002DF7D1FFF75CFF00
:10440000002038BD0220FCE70120FAE7000C00582C
:10441000436E30B52BB90123A0F86A30A0F868309C
:1044200030BD0368094D9A689968094CC2F342622D
:10443000490F6B5C615C1B01B3FBF1F3A0F86A30C0
:10444000AB5CA25C1B01B3FBF2F3E7E7889D0008BD
:10445000809D000870477047704790F88430012BAA
:1044600014D002682423C0F888301168136821F042
:10447000005123F0010313600023436611602022E2
:1044800080F88430C0F888201846704702207047B2
:1044900070B590F884300446012B17D005682423AA
:1044A000C0F888302E682B6823F001032B60AB68BE
:1044B00023F060431943A960FFF7AAFF20232E6071
:1044C000C0F88830002084F8840070BD0220FCE72A
:1044D00070B590F884300446012B17D0056824236A
:1044E000C0F888302E682B6823F001032B60AB687E
:1044F00023F060631943A960FFF78AFF20232E6031
:10450000C0F88830002084F8840070BD0220FCE7E9
:10451000CB0701D500F0ECBD704700F073BE03F08F
:1045200073BE03F0E5BE03F0A9BE08B572B6002065
:1045300004F03CFBFEE7000030B59DB04C220021AA
:1045400009A804F049FF2022002101A804F044FF3B
:104550000220FEF793F800230093234B9A6942F45C
:1045600040429A619A6902F4404200921F4AD16A1D
:1045700041F00101D162D26A02F001020092009A78
:104580009A699404FCD54FF480330121042405205A
:10459000C0220825CDE909130223CDE91233169371
:1045A000CDE917430023CDE9140209A81B93CDE9F7
:1045B0001953FCF7ABF908B1FFF7B7FF3F2203230C
:1045C0002146CDE9012340234FF48062CDE9030564
:1045D00001A8CDE90533CDE90723FCF7E1FC00286C
:1045E000EAD11DB030BD00BF004802580004005899
:1045F0001FB500211022684604F0EEFEFCF73CF9DE
:10460000012300226846ADF8003048F21F73CDE95F
:10461000012340F201130393FCF74CF90420FCF74B
:1046200039F9FEF78DF804F0E7F808B9FFF77DFFD8
:10463000FFF782FF04F020F904F088F90028F5D094
:1046400000F038F800F078F800F0A8F800F07CF9F5
:1046500004F0B0FB03F0D2FF124801F005FA02F0BB
:1046600051F81149114800F0F9FB0028DED010483C
:1046700003F064FD0028D9D004F0EAF904F01AFA36
:1046800004F099FB01F080FA03F048FE02F004F90F
:1046900004F058FA04F018FA04F0E2F804F08CFB85
:1046A000ECE700BF2C010020F17000088C00002016
:1046B000CC01002000B589B01422002103A804F029
:1046C0008BFE1B4B80211B48D3F8E02042F0800278
:1046D000C3F8E020D3F8E02002F080020092009AB4
:1046E000D3F8E02042F00102C3F8E020D3F8E02044
:1046F00002F001020192019AD3F8E02042F0020296
:10470000C3F8E0200122D3F8E03003F00203029363
:10471000029BFDF7D5FD8022012303A90548CDE9C1
:1047200003230023CDE90533FDF7DEFC09B000BD0E
:1047300000440258001C025810B5164B0122164CBA
:10474000052113202360002322826261A263E263B9
:10475000A374A365E365C4E90610C4E90812102038
:104760000821C4E90A22C4E90C230422C4E9100286
:104770002046A266C4E90233C4E91232C4E9143205
:10478000C4E91813FEF762F818B1BDE81040FFF74E
:10479000CCBE10BD00A000402C01002010B50521AA
:1047A000164C0220164B0122236000232282E26273
:1047B0002263A263A374E363C4E905011320C4E97F
:1047C000070163212046C4E909226163042208210C
:1047D0008365C3658266C4E902331024C0E91232DE
:1047E000C0E91042C0E91432C0E91813FEF72EF8F0
:1047F00018B1BDE81040FFF798BE10BD8C00002036
:1048000000A4004010B51422BAB0044600210DEBFC
:10481000020004F0E1FDC02200210AA804F0DCFD42
:104820002368444A934242D14FF4004200230AA82D
:10483000CDE90A23FCF70CFE08B1FFF776FE3E4AED
:104840001368591C116063B93C4BD3F8EC2042F457
:104850008072C3F8EC20D3F8EC3003F4807301933A
:10486000019B364B4FF4407100243548D3F8E020CB
:1048700042F00202C3F8E020D3F8E03003F0020374
:104880000293029B0223CDE90513032305A9CDE979
:10489000074309230993FDF727FC1320224605212E
:1048A000FBF796FF1320FBF7C5FF3AB010BD254A72
:1048B0009342FAD14FF4004200230AA8CDE90A231B
:1048C000FCF7C6FD08B1FFF730FE1B4A1368591C00
:1048D000116063B9194BD3F8EC2042F48072C3F82D
:1048E000EC20D3F8EC3003F480730393039B134B59
:1048F000002405A91248D3F8E02042F00202C3F8D0
:10490000E0204FF44052D3F8E03003F00203049368
:10491000049B0223CDE905230323CDE907430923A3
:104920000993FDF7E1FB142022460521FBF750FF18
:104930001420B8E700A0004088000020004402587E
:104940000004025800A4004008B517494FF4E132B2
:10495000164B08460B600023C1E901230C22C1E974
:104960000333C1E90523C1E90733C1E90933FFF77F
:1049700073FC08B1FFF7D9FD00210B48FFF788FD54
:1049800008B1FFF7D2FD00210748FFF7A1FD08B1EC
:10499000FFF7CBFD0448FFF760FD18B1BDE8084004
:1049A000FFF7C3BD08BD00BFCC01002000100140CF
:1049B00010B5B8B004461422002103A804F00CFD81
:1049C000C022002108A804F007FD22681E4B9A426D
:1049D00038D10122002308A8CDE90823FCF738FDCF
:1049E00008B1FFF7A2FD194B002403A91848D3F81A
:1049F000F02042F01002C3F8F020D3F8F02002F0CB
:104A000010020192019AD3F8E02042F00102C3F8AB
:104A1000E0204FF4C062D3F8E03003F001030293CA
:104A2000029B0223CDE903230723CDE90544079325
:104A3000FDF75AFB252022460621FBF7C9FE25205B
:104A4000FBF7F8FE38B010BD0010014000440258DA
:104A500000000258FEE71EF0040F0CBFEFF30880C1
:104A6000EFF309807146012204F030B91EF0040F03
:104A70000CBFEFF30880EFF309807146022204F0C7
:104A800025B91EF0040F0CBFEFF30880EFF3098087
:104A90007146032204F01AB91EF0040F0CBFEFF3A5
:104AA0000880EFF309807146042204F00FB97047C3
:104AB00070477047FDF772BE0148FEF7A7BA00BF06
:104AC0002C0100200148FEF7A1BA00BF8C00002095
:104AD0000148FEF73BBD00BFCC010020074B82B070
:104AE000D3F8F42042F00202C3F8F420D3F8F430F3
:104AF00003F002030193019B02B070470044025887
:104B00000A4A0346106810B508B9094810600949F7
:104B10000344094C091B8B4206D904F065FC0C23A5
:104B200003604FF0FF3010BD1360FCE7600200200F
:104B3000800A00200000022000100000DFF838D0BA
:104B4000FBF728FEFBF7B4FD0C480D490D4A002386
:104B500002E0D458C4500433C4188C42F9D30A4A32
:104B60000A4C002301E013600432A242FBD304F09C
:104B700041FCFFF73DFDFEE70000022000000020A1
:104B800068000020E09F0008680000207C0A0020E8
:104B9000FEE743EA022370B543EA016300250360A0
:104BA000C0E9015570BD38B51D4613460A461221AD
:104BB000FFF7EFFF858038BDC0F30460704708B58C
:104BC00013460A460021FFF7E4FF08BD08B5134667
:104BD0000A460321FFF7DDFF08BD38B51D46134621
:104BE0000A460421FFF7D5FF057138BD38B51D46CB
:104BF00013460A461121FFF7CCFF858038BD10B55A
:104C0000FFF7D1FF9DF80830037210BD10B5FFF714
:104C1000CAFF029B836010BD38B5FFF7C4FF80ED6B
:104C2000020A38BDF8B50C460646002872D00029A5
:104C300070D00568C5F30463022B6BD125F0604783
:104C40001322002104F1090004F0C6FBC5F30C4552
:104C5000C7F38153A7709FED307A01202370C5F30D
:104C60004013DFED2E6AE370C5F300132371C5F323
:104C7000C0036371C5F38003A371C5F3400305F05E
:104C80000105E3713B0A25726370B3885BBA9BB27E
:104C900007EE903AF8EE677A67EE877A87EEA67AA3
:104CA000DFED1F7A77EE677A9FED1E7AC4ED037A07
:104CB000F3885BBA9BB207EE903AF8EE677A67EE3C
:104CC000877A87EEA67ADFED187A77EE677AB3EE09
:104CD0000C7AC4ED047A33895BBA9BB207EE903A42
:104CE000F8EE677A67EE877A87EEA67AF2EE0C7AAC
:104CF000F2EE046A77EE677AC4ED057A73895BBADF
:104D00009BB207EE903AF8EE677A87EEA67A84EDCA
:104D1000067AF8BD0020FCE7B81EC94100FF7F47B6
:104D2000B81E4941000084420000044230B50C46E0
:104D300093B0054620B9042003F080FC13B030BDC9
:104D400007A9FEF7CFF80028F5D103A92846FEF7FA
:104D5000EEF80028EFD10B9A0A99003A049B0C98C0
:104D600018BF01220039019318BF0121039B0038AD
:104D7000009318BF0120079B03F065FC0C9B002BE0
:104D8000DCD02378002BD9D101230C20237003F031
:104D900055FC082003F090FCD0E700002DE9F0411D
:104DA0008AB004460D462022002102A804F014FB1C
:104DB0001CB900200AB0BDE8F081002DF9D0214FC8
:104DC0003B783BB1204B1B68A342F2D11F4B1D60C7
:104DD0000120EFE74FF080434FF00208012602A9BF
:104DE00020460293CDE90486FDF71AFF0028E0D1A2
:104DF00002A9CDE902002046FDF712FF0028D8D114
:104E000033464246414620460096FDF745FF0028BE
:104E1000CFD10D4B1C600D4B1D600D4B18600D4B21
:104E200018700D4B18602046FDF74FFF0246002812
:104E3000BFD140F601012046FEF79AF80028B8D10C
:104E40003E70C5E76B0200207C0200207402002047
:104E50006C02002069020020640200202DE9F0416C
:104E60008AB004460D462022002102A804F0B4FABC
:104E70001CB900200AB0BDE8F081002DF9D01E4F0A
:104E80003B783BB11D4B1B68A342F2D11C4B1D600C
:104E90000120EFE71B4B1B68A342EAD04FF002084A
:104EA000012602A92046CDE90486FDF7B9FE0028B7
:104EB000DFD133464246414620460096FDF7ECFEE0
:104EC0000028D6D10E4BDFF834801D600E4BC8F899
:104ED000004018702046FDF7F8FE024618B1002386
:104EE000C8F80030C5E740F601012046FEF740F85B
:104EF0000028F4D13E70CBE76A020020780200203F
:104F0000700200207C020020680200202DE9F0479A
:104F10008CB005462422002103A804F05DFA002D80
:104F200066D02C68B4F1005F62D2DFF8D4A0DAF862
:104F3000000000285ED0304B1B78002B5AD02F4B3E
:104F40002F1D1E788EB1FDF735FC0023009008223E
:104F500039462046042403F074FB0421286803F03A
:104F60009FFB20460CB0BDE8F087FDF7FAFFD5F8AF
:104F70000090044670B9FDF71DFC2346082239460F
:104F80000090484603F05DFB03212868032403F0EA
:104F900087FBE6E74FF080434FF008084846394664
:104FA000CDF80C90CDE90436CDE90686CDE908664A
:104FB000CDE90A6603F068FB3A4603A9DAF8000077
:104FC000FDF79CFED5F80090044638B1FDF7F2FBE2
:104FD00033460090424639464846BBE7FDF7EAFBB8
:104FE0000123009042463946484603F02AFBB8E7C1
:104FF0000124B6E70224B4E76B0200206902002016
:105000007C0200202DE9F0478CB004460D4617467F
:105010000021242203A804F0DFF9B4F5006F23D2A5
:1050200065B37B1E072B20D8DFF8C0A0DAF800009C
:10503000D8B12B4B93F80090B9F1000F15D0294B44
:105040001E7896B9FDF78DFF8046E8B9FDF7B2FBF3
:105050002946009043463A46204603F0F2FA0321DF
:10506000204603F01DFB09E045B1FDF7A3FB00233B
:1050700000903A462946204603F0E3FA4FF0000933
:1050800048460CB0BDE8F087174B294620460596E8
:1050900053F82730CDE90346CDE90636CDE9086659
:1050A000CDE90A6603F0F0FA2A4603A9DAF800000F
:1050B000FDF724FE50B1FDF77DFB294600903346F5
:1050C0003A46204603F0BDFA0421C9E7FDF772FB1A
:1050D000012300903A462946204603F0B2FACFE772
:1050E0006A02002068020020909D000878020020DB
:1050F0002DE9F04F3D4F93B004463B68834203D007
:105100003B4B1B6883424ED13A4EDFF8F490DFF8F8
:10511000E0A036E00A9B1BB133680133336030E016
:105120000B99354A52F8040B81423FD00133092BC9
:10513000F8D1DDE90885B5F1804F3AD1ABF108032C
:105140005D425D4100230393FDF734FB039B5A4608
:10515000019006A9009340462B4603F073FA099A82
:10516000002A31D1DAF80030A3420AD1234B1B6860
:105170003BB10898421F032A03D85A4606A980B2B9
:10518000984740212046FDF7E1FE60B106AB08AA32
:1051900040212046FDF7E4FD83460028BAD0154A99
:1051A00013680133136013B0BDE8F08F5FFA83FB1F
:1051B000BFE735B9A8F10503032B8CBF00230123FA
:1051C000C1E700252B46BEE73B68A342A4D1D9F82E
:1051D0000030002BA0D0B2F1804F9DD10B9A082A4D
:1051E0009AD1089A05A805929847CAE77C02002040
:1051F000780200206C020020909D000870020020C0
:1052000074020020074B1B68834203D0064B1B68C7
:10521000834205D1054AD2F89C300133C2F89C3054
:10522000704700BF7C020020780200201008002098
:1052300008B5FDF7BFFA0D4A03461068A8B10C4A3D
:10524000127892B10B490A689A1A132A0DD90B6089
:105250000949FFF76BFD094B1B7833B1084B09492E
:105260001868BDE80840FFF761BD08BD7C0200205A
:105270006B02002064020020690200206A02002004
:105280007802002068020020024B187808B9024B0F
:10529000187870476902002068020020012807D0B2
:1052A000022807D0032807D0042807D1032070471D
:1052B0000020704701207047022070474FF0FF30F8
:1052C0007047006870470000F0EEC07A9FED227AC8
:1052D00010B5F4EE477AF1EE10FA3AD81F4A84007E
:1052E0001F4B02EB800203EB8003D2ED006AD3ED8B
:1052F000007AE6EE807AF0EEE76AF4EE476AF1EEC5
:1053000010FA26D8174BDFED186A234493ED007A84
:1053100037EE666AB4EEE76AF1EE10FA19DC134B69
:10532000234493ED006A76EE266AF4EEE76AF1EE26
:1053300010FA0ED4B4EEE77AF1EE10FA05DCF4EED2
:10534000C67AF1EE10FA36FE277A012081ED007A56
:1053500010BD0020FCE700BFFFFF7F7F309F0008EB
:10536000209F0008209F00086F12833A109F0008BA
:1053700008B5FDF71FFA044B1B68C01A632894BFD9
:105380000020012008BD00BFFC0200207047042857
:105390000EB410B50446ABB00AD02EABA0212D9AA6
:1053A00002A8019303F0FAFF02A92046FFF7EEFFDF
:1053B0002BB0BDE8104003B07047000070B5044644
:1053C000124B002188B054F8032B1A605D1801318C
:1053D00014F8016F08292E71F8D19969013199618A
:1053E000C37A0B490693837A0593437A0493037A2D
:1053F0000393C379029383790193437900930379EB
:105400000420FFF7C4FF08B070BD00BF580400209F
:10541000B49D00082DE9FF4100240646DFF83C80DA
:105420000C4D274601A8334618F8012BFD21FFF744
:10543000D4FB01A8FFF76AFD10B901A8FFF7BEFF72
:1054400001342F765435042CECD1034B1F7004B07B
:10545000BDE8F08108030020F1020020609F0008F1
:1054600010B50446FFF752FD88B10D4B03281A789A
:1054700005D00138C0B2022834BF01200420094BF6
:10548000542101FB023383F84900002010BD20465F
:10549000FFF794FFFDF78EF9034B18600120F5E745
:1054A0000603002008030020FC0200200D4B13B56A
:1054B0001A780446824213D018700B4B1870FDF70F
:1054C00079F90A4B0A4A186003200A4B0A491B78EB
:1054D000D25C0092094A52F823302246FFF757FF68
:1054E00002B010BD070300208A0400200003002042
:1054F000609F000806030020E59D0008649F0008E7
:10550000094A30B454251378084C05FB0344013391
:105510000025DBB284F84850032B137084BF084683
:10552000157030BCFFF7C2BF06030020080300203F
:105530001B4BF7B504461D78EFF3108672B6FDF7E6
:1055400039F9184A0023DFF870C01746516C5432FD
:10555000411A4CF823100133042BF7D1BFF35F8FAE
:1055600006B962B6542300205D430F4B7E191C70B0
:105570000E4B327986F849401A700D4B1870FFF7C0
:1055800049FF2220FFF792FF012003F057F83379FB
:10559000009401207A590749FFF7F9FE03B0F0BDE6
:1055A000060300200803002089040020880400204E
:1055B000F00200200A9E000878040020124B37B544
:1055C0000446084619785423104D59436B1893F834
:1055D0004820022A13D8013283F84900D2B283F856
:1055E00048201B79CDE9002002206A580849FFF7BE
:1055F000CEFE204603B0BDE83040FFF757BF03B0F2
:10560000BDE83040FFF794BF0603002008030020E8
:105610002C9E000838B51D460B4B14461960FFF749
:105620001FFF60B9094B542128461A78084B01FB2B
:10563000023393F84910BDE83840FFF7BFBF20465A
:10564000BDE83840FFF732BFF40200200603002017
:1056500008030020F0B50D4F85B00D4616460C49E5
:1056600004463A78034601A88A5CFD21FFF7BEFA9A
:10567000084B3A7801A81C80074B53F82210334698
:105680002A46FFF7C7FF05B0F0BD00BF06030020A4
:10569000609F0008040300209C0200201D4B1E4A4E
:1056A00010B50446187852F820001C4A126890423F
:1056B00027D0BFF35F8F1A78194B985C00F0FF0377
:1056C00020B10920FFF734FF002010BD1548164C0B
:1056D00030F81200248880B2844201D00820F1E71B
:1056E000124800EB8200C45CCC540133042BFAD185
:1056F0000F4B5421012001FB0233002283F8482084
:10570000E3E7FFF735FE0028DED005212046FFF74E
:1057100055FFD9E7060300209C020020F402002078
:105720009802002090020020040300208002002044
:105730000803002000B52DED028B83B0B0EE408A47
:1057400001A9FFF7ABFF0346D8B101A89FED107A7E
:10575000FFF7B7FD07EE900AF0EEE76AF4EE476A4E
:10576000F1EE10FA0AD877EEC87A9FED0A7AF0EED9
:10577000E77AF4EEC77AF1EE10FA03DD0E20FFF7B8
:10578000D7FE0023184603B0BDEC028B00BD00BF5E
:10579000FFFF7F7F6F12833A124B10B51A780446D1
:1057A000114B53F82210114B1B68994210D0BFF3D4
:1057B0005F8F0F4B542101FB0233DA6922B10F20B6
:1057C000FFF7B6FE002002E0012083F8482010BD5C
:1057D000FFF7CEFD0028F5D005212046FFF7EEFEAD
:1057E000F0E700BF06030020BC020020F402002006
:1057F000080300202DE9F0431D46224B0C4685B0DE
:105800001E78804617469DF83010A6429DF83490C9
:1058100017D11D4C03461D4901A822788A5CFD2141
:10582000FFF7FAF91A4B227801A8A3F80080194B68
:1058300053F8221033463A46FFF7ECFE05B0BDE8B8
:10584000F08396420AD12046FFF7A6FF0028F5D044
:10585000284605B0BDE8F043FFF728BEAE4205D1AB
:10586000324605B0BDE8F043FFF7F4BE2846FFF727
:1058700061FF0028E2D04946204605B0BDE8F0436C
:10588000FFF73EBE0703002006030020609F0008CC
:1058900004030020BC020020F0B58BB0D9B1B0F1F8
:1058A000005F18D20DF103050023644A0090CC5C20
:1058B000D618013305F8014F082B3474F7D1D060A6
:1058C000D3690133D361FFF777F911287FD004D86A
:1058D00048B302284CD00BB0F0BD1528FBD1009B7B
:1058E000C3F30720FFF7DAFC421CF4D0DBB2FD2B38
:1058F000F1D1542301AC03FB00F2514B02F14A05F4
:1059000003CCEE189C18585101A87160FFF7D9FC20
:10591000E06102A8FFF7D5FC2062FCF74BFF606452
:10592000BFF35F8FD7E70098C3B2FE2BD3D1C0F38C
:105930000720FFF7B3FC441C0546CCD0542301AA32
:105940003F4C434303F10D0603CA3719A0511C44D1
:10595000012379606375A375FCF72CFF6064BFF3C6
:105960005F8F384A52F82530013342F82530B2E7CC
:1059700003A96846FFF756F90028ACD09DF80E3011
:10598000FD2BA8D19DF80D00FFF788FC0546681C8B
:10599000A1D054232A4C03FB05449DF80C3084F815
:1059A0002430069BA362079BE362089B2363099B49
:1059B0006363BDF8023003F03F03E3610123A37585
:1059C000FCF7F8FE6064BFF35F8F1F4ACAE7009BD5
:1059D000DAB2FD2A7FF47FAFC3F30720FFF75EFC46
:1059E000411C04463FF477AFC3F30743174A1354EF
:1059F000BDF80420164B23F810209DF80820154B05
:105A000003F8202003EB80039DF809205A709DF8CD
:105A10000A209A709DF80B20DA70FCF7CBFE542216
:105A2000074B02FB04335864BFF35F8F0A4A52F8F6
:105A30002430013342F824304DE700BF58040020E1
:105A400008030020AC020020BC02002098020020C5
:105A500090020020800200209C02002018B1011D4D
:105A60000068FFF719BF7047F8B54FF4A87200211E
:105A70000546314803F0B0FC202200212F4803F0F6
:105A8000ABFC102200212E4803F0A6FC10220021BE
:105A90002C48002403F0A0FC102200212A4803F027
:105AA0009BFC2A4B1022214629481C6003F094FCE1
:105AB00010222146274803F08FFC274B2146102255
:105AC0001C70264B26481C70264B274E1C70274BFB
:105AD0001C70274B1C7003F07FFC2648264B27497F
